{
  "_format": "hh-sol-artifact-1",
  "contractName": "AutomationDemo",
  "sourceName": "contracts/Automation.sol",
  "abi": [
    {
      "inputs": [],
      "stateMutability": "nonpayable",
      "type": "constructor"
    },
    {
      "inputs": [],
      "name": "INITIAL_BALANCE",
      "outputs": [
        {
          "internalType": "uint256",
          "name": "",
          "type": "uint256"
        }
      ],
      "stateMutability": "view",
      "type": "function"
    },
    {
      "inputs": [],
      "name": "SIZE",
      "outputs": [
        {
          "internalType": "uint256",
          "name": "",
          "type": "uint256"
        }
      ],
      "stateMutability": "view",
      "type": "function"
    },
    {
      "inputs": [
        {
          "internalType": "uint256",
          "name": "",
          "type": "uint256"
        }
      ],
      "name": "balances",
      "outputs": [
        {
          "internalType": "uint256",
          "name": "",
          "type": "uint256"
        }
      ],
      "stateMutability": "view",
      "type": "function"
    },
    {
      "inputs": [
        {
          "internalType": "bytes",
          "name": "",
          "type": "bytes"
        }
      ],
      "name": "checkUpkeep",
      "outputs": [
        {
          "internalType": "bool",
          "name": "upkeepNeeded",
          "type": "bool"
        },
        {
          "internalType": "bytes",
          "name": "performData",
          "type": "bytes"
        }
      ],
      "stateMutability": "view",
      "type": "function"
    },
    {
      "inputs": [
        {
          "internalType": "bytes",
          "name": "performData",
          "type": "bytes"
        }
      ],
      "name": "performUpkeep",
      "outputs": [],
      "stateMutability": "nonpayable",
      "type": "function"
    },
    {
      "inputs": [
        {
          "internalType": "uint256",
          "name": "amount",
          "type": "uint256"
        },
        {
          "internalType": "uint256[]",
          "name": "indexes",
          "type": "uint256[]"
        }
      ],
      "name": "withdraw",
      "outputs": [],
      "stateMutability": "nonpayable",
      "type": "function"
    }
  ],
  "bytecode": "0x608060405234801561001057600080fd5b5060005b606481101561004c576103e86000826064811061003457610033610052565b5b01819055508080610044906100ba565b915050610014565b50610102565b7f4e487b7100000000000000000000000000000000000000000000000000000000600052603260045260246000fd5b7f4e487b7100000000000000000000000000000000000000000000000000000000600052601160045260246000fd5b6000819050919050565b60006100c5826100b0565b91507fffffffffffffffffffffffffffffffffffffffffffffffffffffffffffffffff82036100f7576100f6610081565b5b600182019050919050565b6109ac806101116000396000f3fe608060405234801561001057600080fd5b50600436106100625760003560e01c806314525bce146100675780634585e33b146100855780634903b0d1146100a15780635915d806146100d15780636e04ff0d146100ed578063bdffd2821461011e575b600080fd5b61006f61013c565b60405161007c91906103c4565b60405180910390f35b61009f600480360381019061009a9190610458565b610142565b005b6100bb60048036038101906100b691906104d1565b6101b0565b6040516100c891906103c4565b60405180910390f35b6100eb60048036038101906100e6919061064d565b6101cb565b005b61010760048036038101906101029190610458565b610255565b604051610115929190610743565b60405180910390f35b6101266103a6565b60405161013391906103c4565b60405180910390f35b6103e881565b600082828101906101539190610773565b905060005b81518110156101aa576103e86000838381518110610179576101786107bc565b5b602002602001015160648110610192576101916107bc565b5b018190555080806101a29061081a565b915050610158565b50505050565b600081606481106101c057600080fd5b016000915090505481565b60005b8151811015610250576103e8600082606481106101ee576101ed6107bc565b5b0154101561023d5782600083838151811061020c5761020b6107bc565b5b602002602001015160648110610225576102246107bc565b5b0160008282546102359190610862565b925050819055505b80806102489061081a565b9150506101ce565b505050565b60006060600091506000805b60648110156102af576103e860008260648110610281576102806107bc565b5b0154101561029c576001935081806102989061081a565b9250505b80806102a79061081a565b915050610261565b5060008167ffffffffffffffff8111156102cc576102cb61050f565b5b6040519080825280602002602001820160405280156102fa5781602001602082028036833780820191505090505b5090506000805b60648110801561030f575085155b15610379576103e86000826064811061032b5761032a6107bc565b5b015410156103665780838381518110610347576103466107bc565b5b602002602001018181525050818061035e9061081a565b925050600195505b80806103719061081a565b915050610301565b508160405160200161038b9190610954565b60405160208183030381529060405293505050509250929050565b606481565b6000819050919050565b6103be816103ab565b82525050565b60006020820190506103d960008301846103b5565b92915050565b6000604051905090565b600080fd5b600080fd5b600080fd5b600080fd5b600080fd5b60008083601f840112610418576104176103f3565b5b8235905067ffffffffffffffff811115610435576104346103f8565b5b602083019150836001820283011115610451576104506103fd565b5b9250929050565b6000806020838503121561046f5761046e6103e9565b5b600083013567ffffffffffffffff81111561048d5761048c6103ee565b5b61049985828601610402565b92509250509250929050565b6104ae816103ab565b81146104b957600080fd5b50565b6000813590506104cb816104a5565b92915050565b6000602082840312156104e7576104e66103e9565b5b60006104f5848285016104bc565b91505092915050565b6000601f19601f8301169050919050565b7f4e487b7100000000000000000000000000000000000000000000000000000000600052604160045260246000fd5b610547826104fe565b810181811067ffffffffffffffff821117156105665761056561050f565b5b80604052505050565b60006105796103df565b9050610585828261053e565b919050565b600067ffffffffffffffff8211156105a5576105a461050f565b5b602082029050602081019050919050565b60006105c96105c48461058a565b61056f565b905080838252602082019050602084028301858111156105ec576105eb6103fd565b5b835b81811015610615578061060188826104bc565b8452602084019350506020810190506105ee565b5050509392505050565b600082601f830112610634576106336103f3565b5b81356106448482602086016105b6565b91505092915050565b60008060408385031215610664576106636103e9565b5b6000610672858286016104bc565b925050602083013567ffffffffffffffff811115610693576106926103ee565b5b61069f8582860161061f565b9150509250929050565b60008115159050919050565b6106be816106a9565b82525050565b600081519050919050565b600082825260208201905092915050565b60005b838110156106fe5780820151818401526020810190506106e3565b60008484015250505050565b6000610715826106c4565b61071f81856106cf565b935061072f8185602086016106e0565b610738816104fe565b840191505092915050565b600060408201905061075860008301856106b5565b818103602083015261076a818461070a565b90509392505050565b600060208284031215610789576107886103e9565b5b600082013567ffffffffffffffff8111156107a7576107a66103ee565b5b6107b38482850161061f565b91505092915050565b7f4e487b7100000000000000000000000000000000000000000000000000000000600052603260045260246000fd5b7f4e487b7100000000000000000000000000000000000000000000000000000000600052601160045260246000fd5b6000610825826103ab565b91507fffffffffffffffffffffffffffffffffffffffffffffffffffffffffffffffff8203610857576108566107eb565b5b600182019050919050565b600061086d826103ab565b9150610878836103ab565b92508282039050818111156108905761088f6107eb565b5b92915050565b600081519050919050565b600082825260208201905092915050565b6000819050602082019050919050565b6108cb816103ab565b82525050565b60006108dd83836108c2565b60208301905092915050565b6000602082019050919050565b600061090182610896565b61090b81856108a1565b9350610916836108b2565b8060005b8381101561094757815161092e88826108d1565b9750610939836108e9565b92505060018101905061091a565b5085935050505092915050565b6000602082019050818103600083015261096e81846108f6565b90509291505056fea2646970667358221220a4be5b04466b3431c03580a125fc8db3367e10b44380c4529a436f5dbed2e67664736f6c63430008120033",
  "linkReferences": {},
  "deployedLinkReferences": {}
}