{
  "_format": "hh-sol-artifact-1",
  "contractName": "ChainlinkVRF",
  "sourceName": "contracts/VRFConsumer.sol",
  "abi": [
    {
      "inputs": [
        {
          "internalType": "uint64",
          "name": "subId",
          "type": "uint64"
        },
        {
          "internalType": "address",
          "name": "vrfCoordinatorAddr",
          "type": "address"
        }
      ],
      "stateMutability": "nonpayable",
      "type": "constructor"
    },
    {
      "inputs": [
        {
          "internalType": "address",
          "name": "have",
          "type": "address"
        },
        {
          "internalType": "address",
          "name": "want",
          "type": "address"
        }
      ],
      "name": "OnlyCoordinatorCanFulfill",
      "type": "error"
    },
    {
      "inputs": [
        {
          "internalType": "uint256",
          "name": "requestId",
          "type": "uint256"
        },
        {
          "internalType": "uint256[]",
          "name": "randomWords",
          "type": "uint256[]"
        }
      ],
      "name": "rawFulfillRandomWords",
      "outputs": [],
      "stateMutability": "nonpayable",
      "type": "function"
    },
    {
      "inputs": [],
      "name": "requestRandomWords",
      "outputs": [],
      "stateMutability": "nonpayable",
      "type": "function"
    },
    {
      "inputs": [],
      "name": "requstId",
      "outputs": [
        {
          "internalType": "uint256",
          "name": "",
          "type": "uint256"
        }
      ],
      "stateMutability": "view",
      "type": "function"
    },
    {
      "inputs": [
        {
          "internalType": "uint256",
          "name": "",
          "type": "uint256"
        }
      ],
      "name": "s_randomWords",
      "outputs": [
        {
          "internalType": "uint256",
          "name": "",
          "type": "uint256"
        }
      ],
      "stateMutability": "view",
      "type": "function"
    }
  ],
  "bytecode": "0x60a06040527f79d3d8832d904592c0bf9818b621522c988bb8b0c05cdc3b15aea1b6e8db0c1560001b6001556003600260086101000a81548161ffff021916908361ffff16021790555062030d406002600a6101000a81548163ffffffff021916908363ffffffff16021790555060036002600e6101000a81548163ffffffff021916908363ffffffff16021790555034801561009b57600080fd5b50604051610ae4380380610ae483398181016040528101906100bd9190610247565b808073ffffffffffffffffffffffffffffffffffffffff1660808173ffffffffffffffffffffffffffffffffffffffff168152505050806000806101000a81548173ffffffffffffffffffffffffffffffffffffffff021916908373ffffffffffffffffffffffffffffffffffffffff16021790555081600260006101000a81548167ffffffffffffffff021916908367ffffffffffffffff16021790555033600360006101000a81548173ffffffffffffffffffffffffffffffffffffffff021916908373ffffffffffffffffffffffffffffffffffffffff1602179055505050610287565b600080fd5b600067ffffffffffffffff82169050919050565b6101c6816101a9565b81146101d157600080fd5b50565b6000815190506101e3816101bd565b92915050565b600073ffffffffffffffffffffffffffffffffffffffff82169050919050565b6000610214826101e9565b9050919050565b61022481610209565b811461022f57600080fd5b50565b6000815190506102418161021b565b92915050565b6000806040838503121561025e5761025d6101a4565b5b600061026c858286016101d4565b925050602061027d85828601610232565b9150509250929050565b60805161083c6102a86000396000818160c7015261011b015261083c6000f3fe608060405234801561001057600080fd5b506004361061004c5760003560e01c80631fe543e314610051578063e0c862891461006d578063f6eaffc814610077578063fb1685f3146100a7575b600080fd5b61006b6004803603810190610066919061055f565b6100c5565b005b610075610185565b005b610091600480360381019061008c91906105bb565b61030d565b60405161009e91906105f7565b60405180910390f35b6100af610331565b6040516100bc91906105f7565b60405180910390f35b7f000000000000000000000000000000000000000000000000000000000000000073ffffffffffffffffffffffffffffffffffffffff163373ffffffffffffffffffffffffffffffffffffffff161461017757337f00000000000000000000000000000000000000000000000000000000000000006040517f1cf993f400000000000000000000000000000000000000000000000000000000815260040161016e929190610653565b60405180910390fd5b6101818282610337565b5050565b600360009054906101000a900473ffffffffffffffffffffffffffffffffffffffff1673ffffffffffffffffffffffffffffffffffffffff163373ffffffffffffffffffffffffffffffffffffffff1614610215576040517f08c379a000000000000000000000000000000000000000000000000000000000815260040161020c906106d9565b60405180910390fd5b60008054906101000a900473ffffffffffffffffffffffffffffffffffffffff1673ffffffffffffffffffffffffffffffffffffffff16635d3b1d30600154600260009054906101000a900467ffffffffffffffff16600260089054906101000a900461ffff166002600a9054906101000a900463ffffffff166002600e9054906101000a900463ffffffff166040518663ffffffff1660e01b81526004016102c2959493929190610771565b6020604051808303816000875af11580156102e1573d6000803e3d6000fd5b505050506040513d601f19601f8201168201806040525081019061030591906107d9565b600581905550565b6004818154811061031d57600080fd5b906000526020600020016000915090505481565b60055481565b806004908051906020019061034d929190610352565b505050565b82805482825590600052602060002090810192821561038e579160200282015b8281111561038d578251825591602001919060010190610372565b5b50905061039b919061039f565b5090565b5b808211156103b85760008160009055506001016103a0565b5090565b6000604051905090565b600080fd5b600080fd5b6000819050919050565b6103e3816103d0565b81146103ee57600080fd5b50565b600081359050610400816103da565b92915050565b600080fd5b6000601f19601f8301169050919050565b7f4e487b7100000000000000000000000000000000000000000000000000000000600052604160045260246000fd5b6104548261040b565b810181811067ffffffffffffffff821117156104735761047261041c565b5b80604052505050565b60006104866103bc565b9050610492828261044b565b919050565b600067ffffffffffffffff8211156104b2576104b161041c565b5b602082029050602081019050919050565b600080fd5b60006104db6104d684610497565b61047c565b905080838252602082019050602084028301858111156104fe576104fd6104c3565b5b835b81811015610527578061051388826103f1565b845260208401935050602081019050610500565b5050509392505050565b600082601f83011261054657610545610406565b5b81356105568482602086016104c8565b91505092915050565b60008060408385031215610576576105756103c6565b5b6000610584858286016103f1565b925050602083013567ffffffffffffffff8111156105a5576105a46103cb565b5b6105b185828601610531565b9150509250929050565b6000602082840312156105d1576105d06103c6565b5b60006105df848285016103f1565b91505092915050565b6105f1816103d0565b82525050565b600060208201905061060c60008301846105e8565b92915050565b600073ffffffffffffffffffffffffffffffffffffffff82169050919050565b600061063d82610612565b9050919050565b61064d81610632565b82525050565b60006040820190506106686000830185610644565b6106756020830184610644565b9392505050565b600082825260208201905092915050565b7f6e6f74206f776e65722100000000000000000000000000000000000000000000600082015250565b60006106c3600a8361067c565b91506106ce8261068d565b602082019050919050565b600060208201905081810360008301526106f2816106b6565b9050919050565b6000819050919050565b61070c816106f9565b82525050565b600067ffffffffffffffff82169050919050565b61072f81610712565b82525050565b600061ffff82169050919050565b61074c81610735565b82525050565b600063ffffffff82169050919050565b61076b81610752565b82525050565b600060a0820190506107866000830188610703565b6107936020830187610726565b6107a06040830186610743565b6107ad6060830185610762565b6107ba6080830184610762565b9695505050505050565b6000815190506107d3816103da565b92915050565b6000602082840312156107ef576107ee6103c6565b5b60006107fd848285016107c4565b9150509291505056fea2646970667358221220c8e3cedc8f72433f94547af621abe0f5176089ffa3875df6ebf9d4907519b7f664736f6c63430008120033",
  "linkReferences": {},
  "deployedLinkReferences": {}
}